{
  "contracts/YieldVault.sol": {
    "YieldVault": {
      "abi": [
        {
          "inputs": [
            {
              "internalType": "contract IERC20",
              "name": "asset_",
              "type": "address"
            },
            {
              "internalType": "string",
              "name": "name_",
              "type": "string"
            },
            {
              "internalType": "string",
              "name": "symbol_",
              "type": "string"
            },
            {
              "internalType": "string",
              "name": "strategyLabel_",
              "type": "string"
            },
            {
              "internalType": "uint256",
              "name": "apyBps_",
              "type": "uint256"
            }
          ],
          "stateMutability": "nonpayable",
          "type": "constructor"
        },
        {
          "inputs": [
            {
              "internalType": "address",
              "name": "spender",
              "type": "address"
            },
            {
              "internalType": "uint256",
              "name": "allowance",
              "type": "uint256"
            },
            {
              "internalType": "uint256",
              "name": "needed",
              "type": "uint256"
            }
          ],
          "name": "ERC20InsufficientAllowance",
          "type": "error"
        },
        {
          "inputs": [
            {
              "internalType": "address",
              "name": "sender",
              "type": "address"
            },
            {
              "internalType": "uint256",
              "name": "balance",
              "type": "uint256"
            },
            {
              "internalType": "uint256",
              "name": "needed",
              "type": "uint256"
            }
          ],
          "name": "ERC20InsufficientBalance",
          "type": "error"
        },
        {
          "inputs": [
            {
              "internalType": "address",
              "name": "approver",
              "type": "address"
            }
          ],
          "name": "ERC20InvalidApprover",
          "type": "error"
        },
        {
          "inputs": [
            {
              "internalType": "address",
              "name": "receiver",
              "type": "address"
            }
          ],
          "name": "ERC20InvalidReceiver",
          "type": "error"
        },
        {
          "inputs": [
            {
              "internalType": "address",
              "name": "sender",
              "type": "address"
            }
          ],
          "name": "ERC20InvalidSender",
          "type": "error"
        },
        {
          "inputs": [
            {
              "internalType": "address",
              "name": "spender",
              "type": "address"
            }
          ],
          "name": "ERC20InvalidSpender",
          "type": "error"
        },
        {
          "inputs": [
            {
              "internalType": "address",
              "name": "token",
              "type": "address"
            }
          ],
          "name": "SafeERC20FailedOperation",
          "type": "error"
        },
        {
          "anonymous": false,
          "inputs": [
            {
              "indexed": true,
              "internalType": "address",
              "name": "owner",
              "type": "address"
            },
            {
              "indexed": true,
              "internalType": "address",
              "name": "spender",
              "type": "address"
            },
            {
              "indexed": false,
              "internalType": "uint256",
              "name": "value",
              "type": "uint256"
            }
          ],
          "name": "Approval",
          "type": "event"
        },
        {
          "anonymous": false,
          "inputs": [
            {
              "indexed": false,
              "internalType": "uint256",
              "name": "oldApyBps",
              "type": "uint256"
            },
            {
              "indexed": false,
              "internalType": "uint256",
              "name": "newApyBps",
              "type": "uint256"
            }
          ],
          "name": "ApyUpdated",
          "type": "event"
        },
        {
          "anonymous": false,
          "inputs": [
            {
              "indexed": true,
              "internalType": "address",
              "name": "user",
              "type": "address"
            },
            {
              "indexed": false,
              "internalType": "uint256",
              "name": "amount",
              "type": "uint256"
            }
          ],
          "name": "Deposited",
          "type": "event"
        },
        {
          "anonymous": false,
          "inputs": [
            {
              "indexed": true,
              "internalType": "address",
              "name": "from",
              "type": "address"
            },
            {
              "indexed": true,
              "internalType": "address",
              "name": "to",
              "type": "address"
            },
            {
              "indexed": false,
              "internalType": "uint256",
              "name": "value",
              "type": "uint256"
            }
          ],
          "name": "Transfer",
          "type": "event"
        },
        {
          "anonymous": false,
          "inputs": [
            {
              "indexed": true,
              "internalType": "address",
              "name": "user",
              "type": "address"
            },
            {
              "indexed": false,
              "internalType": "uint256",
              "name": "amount",
              "type": "uint256"
            }
          ],
          "name": "Withdrawn",
          "type": "event"
        },
        {
          "inputs": [
            {
              "internalType": "address",
              "name": "owner",
              "type": "address"
            },
            {
              "internalType": "address",
              "name": "spender",
              "type": "address"
            }
          ],
          "name": "allowance",
          "outputs": [
            {
              "internalType": "uint256",
              "name": "",
              "type": "uint256"
            }
          ],
          "stateMutability": "view",
          "type": "function"
        },
        {
          "inputs": [
            {
              "internalType": "address",
              "name": "spender",
              "type": "address"
            },
            {
              "internalType": "uint256",
              "name": "value",
              "type": "uint256"
            }
          ],
          "name": "approve",
          "outputs": [
            {
              "internalType": "bool",
              "name": "",
              "type": "bool"
            }
          ],
          "stateMutability": "nonpayable",
          "type": "function"
        },
        {
          "inputs": [],
          "name": "asset",
          "outputs": [
            {
              "internalType": "contract IERC20",
              "name": "",
              "type": "address"
            }
          ],
          "stateMutability": "view",
          "type": "function"
        },
        {
          "inputs": [
            {
              "internalType": "address",
              "name": "account",
              "type": "address"
            }
          ],
          "name": "balanceOf",
          "outputs": [
            {
              "internalType": "uint256",
              "name": "",
              "type": "uint256"
            }
          ],
          "stateMutability": "view",
          "type": "function"
        },
        {
          "inputs": [],
          "name": "decimals",
          "outputs": [
            {
              "internalType": "uint8",
              "name": "",
              "type": "uint8"
            }
          ],
          "stateMutability": "view",
          "type": "function"
        },
        {
          "inputs": [
            {
              "internalType": "uint256",
              "name": "amount",
              "type": "uint256"
            }
          ],
          "name": "deposit",
          "outputs": [],
          "stateMutability": "nonpayable",
          "type": "function"
        },
        {
          "inputs": [],
          "name": "getAPY",
          "outputs": [
            {
              "internalType": "uint256",
              "name": "",
              "type": "uint256"
            }
          ],
          "stateMutability": "view",
          "type": "function"
        },
        {
          "inputs": [],
          "name": "name",
          "outputs": [
            {
              "internalType": "string",
              "name": "",
              "type": "string"
            }
          ],
          "stateMutability": "view",
          "type": "function"
        },
        {
          "inputs": [],
          "name": "owner",
          "outputs": [
            {
              "internalType": "address",
              "name": "",
              "type": "address"
            }
          ],
          "stateMutability": "view",
          "type": "function"
        },
        {
          "inputs": [
            {
              "internalType": "uint256",
              "name": "newApyBps",
              "type": "uint256"
            }
          ],
          "name": "setAPY",
          "outputs": [],
          "stateMutability": "nonpayable",
          "type": "function"
        },
        {
          "inputs": [],
          "name": "strategyLabel",
          "outputs": [
            {
              "internalType": "string",
              "name": "",
              "type": "string"
            }
          ],
          "stateMutability": "view",
          "type": "function"
        },
        {
          "inputs": [],
          "name": "symbol",
          "outputs": [
            {
              "internalType": "string",
              "name": "",
              "type": "string"
            }
          ],
          "stateMutability": "view",
          "type": "function"
        },
        {
          "inputs": [],
          "name": "totalSupply",
          "outputs": [
            {
              "internalType": "uint256",
              "name": "",
              "type": "uint256"
            }
          ],
          "stateMutability": "view",
          "type": "function"
        },
        {
          "inputs": [
            {
              "internalType": "address",
              "name": "to",
              "type": "address"
            },
            {
              "internalType": "uint256",
              "name": "value",
              "type": "uint256"
            }
          ],
          "name": "transfer",
          "outputs": [
            {
              "internalType": "bool",
              "name": "",
              "type": "bool"
            }
          ],
          "stateMutability": "nonpayable",
          "type": "function"
        },
        {
          "inputs": [
            {
              "internalType": "address",
              "name": "from",
              "type": "address"
            },
            {
              "internalType": "address",
              "name": "to",
              "type": "address"
            },
            {
              "internalType": "uint256",
              "name": "value",
              "type": "uint256"
            }
          ],
          "name": "transferFrom",
          "outputs": [
            {
              "internalType": "bool",
              "name": "",
              "type": "bool"
            }
          ],
          "stateMutability": "nonpayable",
          "type": "function"
        },
        {
          "inputs": [
            {
              "internalType": "uint256",
              "name": "amount",
              "type": "uint256"
            }
          ],
          "name": "withdraw",
          "outputs": [],
          "stateMutability": "nonpayable",
          "type": "function"
        }
      ],
      "evm": {
        "bytecode": {
          "linkReferences": {},
          "object": "60a06040523480156200001157600080fd5b5060405162001fc438038062001fc48339818101604052810190620000379190620003b1565b838381600390816200004a9190620006d7565b5080600490816200005c9190620006d7565b505050600073ffffffffffffffffffffffffffffffffffffffff168573ffffffffffffffffffffffffffffffffffffffff1603620000d1576040517f08c379a0000000000000000000000000000000000000000000000000000000008152600401620000c8906200081f565b60405180910390fd5b8473ffffffffffffffffffffffffffffffffffffffff1660808173ffffffffffffffffffffffffffffffffffffffff168152505033600560006101000a81548173ffffffffffffffffffffffffffffffffffffffff021916908373ffffffffffffffffffffffffffffffffffffffff1602179055508160079081620001579190620006d7565b5080600681905550505050505062000841565b6000604051905090565b600080fd5b600080fd5b600073ffffffffffffffffffffffffffffffffffffffff82169050919050565b6000620001ab826200017e565b9050919050565b6000620001bf826200019e565b9050919050565b620001d181620001b2565b8114620001dd57600080fd5b50565b600081519050620001f181620001c6565b92915050565b600080fd5b600080fd5b6000601f19601f8301169050919050565b7f4e487b7100000000000000000000000000000000000000000000000000000000600052604160045260246000fd5b6200024c8262000201565b810181811067ffffffffffffffff821117156200026e576200026d62000212565b5b80604052505050565b6000620002836200016a565b905062000291828262000241565b919050565b600067ffffffffffffffff821115620002b457620002b362000212565b5b620002bf8262000201565b9050602081019050919050565b60005b83811015620002ec578082015181840152602081019050620002cf565b60008484015250505050565b60006200030f620003098462000296565b62000277565b9050828152602081018484840111156200032e576200032d620001fc565b5b6200033b848285620002cc565b509392505050565b600082601f8301126200035b576200035a620001f7565b5b81516200036d848260208601620002f8565b91505092915050565b6000819050919050565b6200038b8162000376565b81146200039757600080fd5b50565b600081519050620003ab8162000380565b92915050565b600080600080600060a08688031215620003d057620003cf62000174565b5b6000620003e088828901620001e0565b955050602086015167ffffffffffffffff81111562000404576200040362000179565b5b620004128882890162000343565b945050604086015167ffffffffffffffff81111562000436576200043562000179565b5b620004448882890162000343565b935050606086015167ffffffffffffffff81111562000468576200046762000179565b5b620004768882890162000343565b925050608062000489888289016200039a565b9150509295509295909350565b600081519050919050565b7f4e487b7100000000000000000000000000000000000000000000000000000000600052602260045260246000fd5b60006002820490506001821680620004e957607f821691505b602082108103620004ff57620004fe620004a1565b5b50919050565b60008190508160005260206000209050919050565b60006020601f8301049050919050565b600082821b905092915050565b600060088302620005697fffffffffffffffffffffffffffffffffffffffffffffffffffffffffffffffff826200052a565b6200057586836200052a565b95508019841693508086168417925050509392505050565b6000819050919050565b6000620005b8620005b2620005ac8462000376565b6200058d565b62000376565b9050919050565b6000819050919050565b620005d48362000597565b620005ec620005e382620005bf565b84845462000537565b825550505050565b600090565b62000603620005f4565b62000610818484620005c9565b505050565b5b8181101562000638576200062c600082620005f9565b60018101905062000616565b5050565b601f8211156200068757620006518162000505565b6200065c846200051a565b810160208510156200066c578190505b620006846200067b856200051a565b83018262000615565b50505b505050565b600082821c905092915050565b6000620006ac600019846008026200068c565b1980831691505092915050565b6000620006c7838362000699565b9150826002028217905092915050565b620006e28262000496565b67ffffffffffffffff811115620006fe57620006fd62000212565b5b6200070a8254620004d0565b620007178282856200063c565b600060209050601f8311600181146200074f57600084156200073a578287015190505b620007468582620006b9565b865550620007b6565b601f1984166200075f8662000505565b60005b82811015620007895784890151825560018201915060208501945060208101905062000762565b86831015620007a95784890151620007a5601f89168262000699565b8355505b6001600288020188555050505b505050505050565b600082825260208201905092915050565b7f41535345545f5a45524f00000000000000000000000000000000000000000000600082015250565b600062000807600a83620007be565b91506200081482620007cf565b602082019050919050565b600060208201905081810360008301526200083a81620007f8565b9050919050565b6080516117596200086b60003960008181610556015281816105f6015261078601526117596000f3fe608060405234801561001057600080fd5b50600436106101005760003560e01c806370a0823111610097578063b6b55f2511610066578063b6b55f25146102b1578063d2cbf7ad146102cd578063dd62ed3e146102eb578063fc97bccc1461031b57610100565b806370a08231146102155780638da5cb5b1461024557806395d89b4114610263578063a9059cbb1461028157610100565b806324f45e67116100d357806324f45e67146101a15780632e1a7d4d146101bd578063313ce567146101d957806338d52e0f146101f757610100565b806306fdde0314610105578063095ea7b31461012357806318160ddd1461015357806323b872dd14610171575b600080fd5b61010d610339565b60405161011a9190611205565b60405180910390f35b61013d600480360381019061013891906112c0565b6103cb565b60405161014a919061131b565b60405180910390f35b61015b6103ee565b6040516101689190611345565b60405180910390f35b61018b60048036038101906101869190611360565b6103f8565b604051610198919061131b565b60405180910390f35b6101bb60048036038101906101b691906113b3565b610427565b005b6101d760048036038101906101d291906113b3565b610502565b005b6101e16105eb565b6040516101ee91906113fc565b60405180910390f35b6101ff6105f4565b60405161020c9190611476565b60405180910390f35b61022f600480360381019061022a9190611491565b610618565b60405161023c9190611345565b60405180910390f35b61024d610660565b60405161025a91906114cd565b60405180910390f35b61026b610686565b6040516102789190611205565b60405180910390f35b61029b600480360381019061029691906112c0565b610718565b6040516102a8919061131b565b60405180910390f35b6102cb60048036038101906102c691906113b3565b61073b565b005b6102d5610826565b6040516102e29190611345565b60405180910390f35b610305600480360381019061030091906114e8565b610830565b6040516103129190611345565b60405180910390f35b6103236108b7565b6040516103309190611205565b60405180910390f35b60606003805461034890611557565b80601f016020809104026020016040519081016040528092919081815260200182805461037490611557565b80156103c15780601f10610396576101008083540402835291602001916103c1565b820191906000526020600020905b8154815290600101906020018083116103a457829003601f168201915b5050505050905090565b6000806103d6610945565b90506103e381858561094d565b600191505092915050565b6000600254905090565b600080610403610945565b905061041085828561095f565b61041b8585856109f4565b60019150509392505050565b600560009054906101000a900473ffffffffffffffffffffffffffffffffffffffff1673ffffffffffffffffffffffffffffffffffffffff163373ffffffffffffffffffffffffffffffffffffffff16146104b7576040517f08c379a00000000000000000000000000000000000000000000000000000000081526004016104ae906115d4565b60405180910390fd5b60006006549050816006819055507f04964a33c1a30f04af88d6711c6b44938a06fab8be55d0b96c4a37c527d70a5781836040516104f69291906115f4565b60405180910390a15050565b60008111610545576040517f08c379a000000000000000000000000000000000000000000000000000000000815260040161053c90611669565b60405180910390fd5b61054f3382610ae8565b61059a33827f000000000000000000000000000000000000000000000000000000000000000073ffffffffffffffffffffffffffffffffffffffff16610b6a9092919063ffffffff16565b3373ffffffffffffffffffffffffffffffffffffffff167f7084f5476618d8e60b11ef0d7d3f06914655adb8793e28ff7f018d4c76d505d5826040516105e09190611345565b60405180910390a250565b60006012905090565b7f000000000000000000000000000000000000000000000000000000000000000081565b60008060008373ffffffffffffffffffffffffffffffffffffffff1673ffffffffffffffffffffffffffffffffffffffff168152602001908152602001600020549050919050565b600560009054906101000a900473ffffffffffffffffffffffffffffffffffffffff1681565b60606004805461069590611557565b80601f01602080910402602001604051908101604052809291908181526020018280546106c190611557565b801561070e5780601f106106e35761010080835404028352916020019161070e565b820191906000526020600020905b8154815290600101906020018083116106f157829003601f168201915b5050505050905090565b600080610723610945565b90506107308185856109f4565b600191505092915050565b6000811161077e576040517f08c379a000000000000000000000000000000000000000000000000000000000815260040161077590611669565b60405180910390fd5b6107cb3330837f000000000000000000000000000000000000000000000000000000000000000073ffffffffffffffffffffffffffffffffffffffff16610bbd909392919063ffffffff16565b6107d53382610c12565b3373ffffffffffffffffffffffffffffffffffffffff167f2da466a7b24304f47e87fa2e1e5a81b9831ce54fec19055ce277ca2f39ba42c48260405161081b9190611345565b60405180910390a250565b6000600654905090565b6000600160008473ffffffffffffffffffffffffffffffffffffffff1673ffffffffffffffffffffffffffffffffffffffff16815260200190815260200160002060008373ffffffffffffffffffffffffffffffffffffffff1673ffffffffffffffffffffffffffffffffffffffff16815260200190815260200160002054905092915050565b600780546108c490611557565b80601f01602080910402602001604051908101604052809291908181526020018280546108f090611557565b801561093d5780601f106109125761010080835404028352916020019161093d565b820191906000526020600020905b81548152906001019060200180831161092057829003601f168201915b505050505081565b600033905090565b61095a8383836001610c94565b505050565b600061096b8484610830565b90507fffffffffffffffffffffffffffffffffffffffffffffffffffffffffffffffff8110156109ee57818110156109de578281836040517ffb8f41b20000000000000000000000000000000000000000000000000000000081526004016109d593929190611689565b60405180910390fd5b6109ed84848484036000610c94565b5b50505050565b600073ffffffffffffffffffffffffffffffffffffffff168373ffffffffffffffffffffffffffffffffffffffff1603610a665760006040517f96c6fd1e000000000000000000000000000000000000000000000000000000008152600401610a5d91906114cd565b60405180910390fd5b600073ffffffffffffffffffffffffffffffffffffffff168273ffffffffffffffffffffffffffffffffffffffff1603610ad85760006040517fec442f05000000000000000000000000000000000000000000000000000000008152600401610acf91906114cd565b60405180910390fd5b610ae3838383610e6b565b505050565b600073ffffffffffffffffffffffffffffffffffffffff168273ffffffffffffffffffffffffffffffffffffffff1603610b5a5760006040517f96c6fd1e000000000000000000000000000000000000000000000000000000008152600401610b5191906114cd565b60405180910390fd5b610b6682600083610e6b565b5050565b610b778383836001611090565b610bb857826040517f5274afe7000000000000000000000000000000000000000000000000000000008152600401610baf91906114cd565b60405180910390fd5b505050565b610bcb8484848460016110fa565b610c0c57836040517f5274afe7000000000000000000000000000000000000000000000000000000008152600401610c0391906114cd565b60405180910390fd5b50505050565b600073ffffffffffffffffffffffffffffffffffffffff168273ffffffffffffffffffffffffffffffffffffffff1603610c845760006040517fec442f05000000000000000000000000000000000000000000000000000000008152600401610c7b91906114cd565b60405180910390fd5b610c9060008383610e6b565b5050565b600073ffffffffffffffffffffffffffffffffffffffff168473ffffffffffffffffffffffffffffffffffffffff1603610d065760006040517fe602df05000000000000000000000000000000000000000000000000000000008152600401610cfd91906114cd565b60405180910390fd5b600073ffffffffffffffffffffffffffffffffffffffff168373ffffffffffffffffffffffffffffffffffffffff1603610d785760006040517f94280d62000000000000000000000000000000000000000000000000000000008152600401610d6f91906114cd565b60405180910390fd5b81600160008673ffffffffffffffffffffffffffffffffffffffff1673ffffffffffffffffffffffffffffffffffffffff16815260200190815260200160002060008573ffffffffffffffffffffffffffffffffffffffff1673ffffffffffffffffffffffffffffffffffffffff168152602001908152602001600020819055508015610e65578273ffffffffffffffffffffffffffffffffffffffff168473ffffffffffffffffffffffffffffffffffffffff167f8c5be1e5ebec7d5bd14f71427d1e84f3dd0314c0f7b2291e5b200ac8c7c3b92584604051610e5c9190611345565b60405180910390a35b50505050565b600073ffffffffffffffffffffffffffffffffffffffff168373ffffffffffffffffffffffffffffffffffffffff1603610ebd578060026000828254610eb191906116ef565b92505081905550610f90565b60008060008573ffffffffffffffffffffffffffffffffffffffff1673ffffffffffffffffffffffffffffffffffffffff16815260200190815260200160002054905081811015610f49578381836040517fe450d38c000000000000000000000000000000000000000000000000000000008152600401610f4093929190611689565b60405180910390fd5b8181036000808673ffffffffffffffffffffffffffffffffffffffff1673ffffffffffffffffffffffffffffffffffffffff16815260200190815260200160002081905550505b600073ffffffffffffffffffffffffffffffffffffffff168273ffffffffffffffffffffffffffffffffffffffff1603610fd95780600260008282540392505081905550611026565b806000808473ffffffffffffffffffffffffffffffffffffffff1673ffffffffffffffffffffffffffffffffffffffff168152602001908152602001600020600082825401925050819055505b8173ffffffffffffffffffffffffffffffffffffffff168373ffffffffffffffffffffffffffffffffffffffff167fddf252ad1be2c89b69c2b068fc378daa952ba7f163c4a11628f55a4df523b3ef836040516110839190611345565b60405180910390a3505050565b60008063a9059cbb60e01b90506040518160005260001960601c8616600452846024526020600060446000808b5af1925060016000511483166110ec5783831516156110df573d6000823e3d81fd5b6000873b113d1516831692505b806040525050949350505050565b6000806323b872dd60e01b90506040518160005260001960601c871660045260001960601c8616602452846044526020600060646000808c5af192506001600051148316611161578383151615611154573d6000823e3d81fd5b6000883b113d1516831692505b806040526000606052505095945050505050565b600081519050919050565b600082825260208201905092915050565b60005b838110156111af578082015181840152602081019050611194565b60008484015250505050565b6000601f19601f8301169050919050565b60006111d782611175565b6111e18185611180565b93506111f1818560208601611191565b6111fa816111bb565b840191505092915050565b6000602082019050818103600083015261121f81846111cc565b905092915050565b600080fd5b600073ffffffffffffffffffffffffffffffffffffffff82169050919050565b60006112578261122c565b9050919050565b6112678161124c565b811461127257600080fd5b50565b6000813590506112848161125e565b92915050565b6000819050919050565b61129d8161128a565b81146112a857600080fd5b50565b6000813590506112ba81611294565b92915050565b600080604083850312156112d7576112d6611227565b5b60006112e585828601611275565b92505060206112f6858286016112ab565b9150509250929050565b60008115159050919050565b61131581611300565b82525050565b6000602082019050611330600083018461130c565b92915050565b61133f8161128a565b82525050565b600060208201905061135a6000830184611336565b92915050565b60008060006060848603121561137957611378611227565b5b600061138786828701611275565b935050602061139886828701611275565b92505060406113a9868287016112ab565b9150509250925092565b6000602082840312156113c9576113c8611227565b5b60006113d7848285016112ab565b91505092915050565b600060ff82169050919050565b6113f6816113e0565b82525050565b600060208201905061141160008301846113ed565b92915050565b6000819050919050565b600061143c6114376114328461122c565b611417565b61122c565b9050919050565b600061144e82611421565b9050919050565b600061146082611443565b9050919050565b61147081611455565b82525050565b600060208201905061148b6000830184611467565b92915050565b6000602082840312156114a7576114a6611227565b5b60006114b584828501611275565b91505092915050565b6114c78161124c565b82525050565b60006020820190506114e260008301846114be565b92915050565b600080604083850312156114ff576114fe611227565b5b600061150d85828601611275565b925050602061151e85828601611275565b9150509250929050565b7f4e487b7100000000000000000000000000000000000000000000000000000000600052602260045260246000fd5b6000600282049050600182168061156f57607f821691505b60208210810361158257611581611528565b5b50919050565b7f4f4e4c595f4f574e455200000000000000000000000000000000000000000000600082015250565b60006115be600a83611180565b91506115c982611588565b602082019050919050565b600060208201905081810360008301526115ed816115b1565b9050919050565b60006040820190506116096000830185611336565b6116166020830184611336565b9392505050565b7f5a45524f5f414d4f554e54000000000000000000000000000000000000000000600082015250565b6000611653600b83611180565b915061165e8261161d565b602082019050919050565b6000602082019050818103600083015261168281611646565b9050919050565b600060608201905061169e60008301866114be565b6116ab6020830185611336565b6116b86040830184611336565b949350505050565b7f4e487b7100000000000000000000000000000000000000000000000000000000600052601160045260246000fd5b60006116fa8261128a565b91506117058361128a565b925082820190508082111561171d5761171c6116c0565b5b9291505056fea26469706673582212204d746f80831bead90681879257d51de54d4d55748f0e9201d7920fdb97c484bf64736f6c63430008180033",
          "opcodes": "PUSH1 0xA0 PUSH1 0x40 MSTORE CALLVALUE DUP1 ISZERO PUSH3 0x11 JUMPI PUSH1 0x0 DUP1 REVERT JUMPDEST POP PUSH1 0x40 MLOAD PUSH3 0x1FC4 CODESIZE SUB DUP1 PUSH3 0x1FC4 DUP4 CODECOPY DUP2 DUP2 ADD PUSH1 0x40 MSTORE DUP2 ADD SWAP1 PUSH3 0x37 SWAP2 SWAP1 PUSH3 0x3B1 JUMP JUMPDEST DUP4 DUP4 DUP2 PUSH1 0x3 SWAP1 DUP2 PUSH3 0x4A SWAP2 SWAP1 PUSH3 0x6D7 JUMP JUMPDEST POP DUP1 PUSH1 0x4 SWAP1 DUP2 PUSH3 0x5C SWAP2 SWAP1 PUSH3 0x6D7 JUMP JUMPDEST POP POP POP PUSH1 0x0 PUSH20 0xFFFFFFFFFFFFFFFFFFFFFFFFFFFFFFFFFFFFFFFF AND DUP6 PUSH20 0xFFFFFFFFFFFFFFFFFFFFFFFFFFFFFFFFFFFFFFFF AND SUB PUSH3 0xD1 JUMPI PUSH1 0x40 MLOAD PUSH32 0x8C379A000000000000000000000000000000000000000000000000000000000 DUP2 MSTORE PUSH1 0x4 ADD PUSH3 0xC8 SWAP1 PUSH3 0x81F JUMP JUMPDEST PUSH1 0x40 MLOAD DUP1 SWAP2 SUB SWAP1 REVERT JUMPDEST DUP5 PUSH20 0xFFFFFFFFFFFFFFFFFFFFFFFFFFFFFFFFFFFFFFFF AND PUSH1 0x80 DUP2 PUSH20 0xFFFFFFFFFFFFFFFFFFFFFFFFFFFFFFFFFFFFFFFF AND DUP2 MSTORE POP POP CALLER PUSH1 0x5 PUSH1 0x0 PUSH2 0x100 EXP DUP2 SLOAD DUP2 PUSH20 0xFFFFFFFFFFFFFFFFFFFFFFFFFFFFFFFFFFFFFFFF MUL NOT AND SWAP1 DUP4 PUSH20 0xFFFFFFFFFFFFFFFFFFFFFFFFFFFFFFFFFFFFFFFF AND MUL OR SWAP1 SSTORE POP DUP2 PUSH1 0x7 SWAP1 DUP2 PUSH3 0x157 SWAP2 SWAP1 PUSH3 0x6D7 JUMP JUMPDEST POP DUP1 PUSH1 0x6 DUP2 SWAP1 SSTORE POP POP POP POP POP POP PUSH3 0x841 JUMP JUMPDEST PUSH1 0x0 PUSH1 0x40 MLOAD SWAP1 POP SWAP1 JUMP JUMPDEST PUSH1 0x0 DUP1 REVERT JUMPDEST PUSH1 0x0 DUP1 REVERT JUMPDEST PUSH1 0x0 PUSH20 0xFFFFFFFFFFFFFFFFFFFFFFFFFFFFFFFFFFFFFFFF DUP3 AND SWAP1 POP SWAP2 SWAP1 POP JUMP JUMPDEST PUSH1 0x0 PUSH3 0x1AB DUP3 PUSH3 0x17E JUMP JUMPDEST SWAP1 POP SWAP2 SWAP1 POP JUMP JUMPDEST PUSH1 0x0 PUSH3 0x1BF DUP3 PUSH3 0x19E JUMP JUMPDEST SWAP1 POP SWAP2 SWAP1 POP JUMP JUMPDEST PUSH3 0x1D1 DUP2 PUSH3 0x1B2 JUMP JUMPDEST DUP2 EQ PUSH3 0x1DD JUMPI PUSH1 0x0 DUP1 REVERT JUMPDEST POP JUMP JUMPDEST PUSH1 0x0 DUP2 MLOAD SWAP1 POP PUSH3 0x1F1 DUP2 PUSH3 0x1C6 JUMP JUMPDEST SWAP3 SWAP2 POP POP JUMP JUMPDEST PUSH1 0x0 DUP1 REVERT JUMPDEST PUSH1 0x0 DUP1 REVERT JUMPDEST PUSH1 0x0 PUSH1 0x1F NOT PUSH1 0x1F DUP4 ADD AND SWAP1 POP SWAP2 SWAP1 POP JUMP JUMPDEST PUSH32 0x4E487B7100000000000000000000000000000000000000000000000000000000 PUSH1 0x0 MSTORE PUSH1 0x41 PUSH1 0x4 MSTORE PUSH1 0x24 PUSH1 0x0 REVERT JUMPDEST PUSH3 0x24C DUP3 PUSH3 0x201 JUMP JUMPDEST DUP2 ADD DUP2 DUP2 LT PUSH8 0xFFFFFFFFFFFFFFFF DUP3 GT OR ISZERO PUSH3 0x26E JUMPI PUSH3 0x26D PUSH3 0x212 JUMP JUMPDEST JUMPDEST DUP1 PUSH1 0x40 MSTORE POP POP POP JUMP JUMPDEST PUSH1 0x0 PUSH3 0x283 PUSH3 0x16A JUMP JUMPDEST SWAP1 POP PUSH3 0x291 DUP3 DUP3 PUSH3 0x241 JUMP JUMPDEST SWAP2 SWAP1 POP JUMP JUMPDEST PUSH1 0x0 PUSH8 0xFFFFFFFFFFFFFFFF DUP3 GT ISZERO PUSH3 0x2B4 JUMPI PUSH3 0x2B3 PUSH3 0x212 JUMP JUMPDEST JUMPDEST PUSH3 0x2BF DUP3 PUSH3 0x201 JUMP JUMPDEST SWAP1 POP PUSH1 0x20 DUP2 ADD SWAP1 POP SWAP2 SWAP1 POP JUMP JUMPDEST PUSH1 0x0 JUMPDEST DUP4 DUP2 LT ISZERO PUSH3 0x2EC JUMPI DUP1 DUP3 ADD MLOAD DUP2 DUP5 ADD MSTORE PUSH1 0x20 DUP2 ADD SWAP1 POP PUSH3 0x2CF JUMP JUMPDEST PUSH1 0x0 DUP5 DUP5 ADD MSTORE POP POP POP POP JUMP JUMPDEST PUSH1 0x0 PUSH3 0x30F PUSH3 0x309 DUP5 PUSH3 0x296 JUMP JUMPDEST PUSH3 0x277 JUMP JUMPDEST SWAP1 POP DUP3 DUP2 MSTORE PUSH1 0x20 DUP2 ADD DUP5 DUP5 DUP5 ADD GT ISZERO PUSH3 0x32E JUMPI PUSH3 0x32D PUSH3 0x1FC JUMP JUMPDEST JUMPDEST PUSH3 0x33B DUP5 DUP3 DUP6 PUSH3 0x2CC JUMP JUMPDEST POP SWAP4 SWAP3 POP POP POP JUMP JUMPDEST PUSH1 0x0 DUP3 PUSH1 0x1F DUP4 ADD SLT PUSH3 0x35B JUMPI PUSH3 0x35A PUSH3 0x1F7 JUMP JUMPDEST JUMPDEST DUP2 MLOAD PUSH3 0x36D DUP5 DUP3 PUSH1 0x20 DUP7 ADD PUSH3 0x2F8 JUMP JUMPDEST SWAP2 POP POP SWAP3 SWAP2 POP POP JUMP JUMPDEST PUSH1 0x0 DUP2 SWAP1 POP SWAP2 SWAP1 POP JUMP JUMPDEST PUSH3 0x38B DUP2 PUSH3 0x376 JUMP JUMPDEST DUP2 EQ PUSH3 0x397 JUMPI PUSH1 0x0 DUP1 REVERT JUMPDEST POP JUMP JUMPDEST PUSH1 0x0 DUP2 MLOAD SWAP1 POP PUSH3 0x3AB DUP2 PUSH3 0x380 JUMP JUMPDEST SWAP3 SWAP2 POP POP JUMP JUMPDEST PUSH1 0x0 DUP1 PUSH1 0x0 DUP1 PUSH1 0x0 PUSH1 0xA0 DUP7 DUP9 SUB SLT ISZERO PUSH3 0x3D0 JUMPI PUSH3 0x3CF PUSH3 0x174 JUMP JUMPDEST JUMPDEST PUSH1 0x0 PUSH3 0x3E0 DUP9 DUP3 DUP10 ADD PUSH3 0x1E0 JUMP JUMPDEST SWAP6 POP POP PUSH1 0x20 DUP7 ADD MLOAD PUSH8 0xFFFFFFFFFFFFFFFF DUP2 GT ISZERO PUSH3 0x404 JUMPI PUSH3 0x403 PUSH3 0x179 JUMP JUMPDEST JUMPDEST PUSH3 0x412 DUP9 DUP3 DUP10 ADD PUSH3 0x343 JUMP JUMPDEST SWAP5 POP POP PUSH1 0x40 DUP7 ADD MLOAD PUSH8 0xFFFFFFFFFFFFFFFF DUP2 GT ISZERO PUSH3 0x436 JUMPI PUSH3 0x435 PUSH3 0x179 JUMP JUMPDEST JUMPDEST PUSH3 0x444 DUP9 DUP3 DUP10 ADD PUSH3 0x343 JUMP JUMPDEST SWAP4 POP POP PUSH1 0x60 DUP7 ADD MLOAD PUSH8 0xFFFFFFFFFFFFFFFF DUP2 GT ISZERO PUSH3 0x468 JUMPI PUSH3 0x467 PUSH3 0x179 JUMP JUMPDEST JUMPDEST PUSH3 0x476 DUP9 DUP3 DUP10 ADD PUSH3 0x343 JUMP JUMPDEST SWAP3 POP POP PUSH1 0x80 PUSH3 0x489 DUP9 DUP3 DUP10 ADD PUSH3 0x39A JUMP JUMPDEST SWAP2 POP POP SWAP3 SWAP6 POP SWAP3 SWAP6 SWAP1 SWAP4 POP JUMP JUMPDEST PUSH1 0x0 DUP2 MLOAD SWAP1 POP SWAP2 SWAP1 POP JUMP JUMPDEST PUSH32 0x4E487B7100000000000000000000000000000000000000000000000000000000 PUSH1 0x0 MSTORE PUSH1 0x22 PUSH1 0x4 MSTORE PUSH1 0x24 PUSH1 0x0 REVERT JUMPDEST PUSH1 0x0 PUSH1 0x2 DUP3 DIV SWAP1 POP PUSH1 0x1 DUP3 AND DUP1 PUSH3 0x4E9 JUMPI PUSH1 0x7F DUP3 AND SWAP2 POP JUMPDEST PUSH1 0x20 DUP3 LT DUP2 SUB PUSH3 0x4FF JUMPI PUSH3 0x4FE PUSH3 0x4A1 JUMP JUMPDEST JUMPDEST POP SWAP2 SWAP1 POP JUMP JUMPDEST PUSH1 0x0 DUP2 SWAP1 POP DUP2 PUSH1 0x0 MSTORE PUSH1 0x20 PUSH1 0x0 KECCAK256 SWAP1 POP SWAP2 SWAP1 POP JUMP JUMPDEST PUSH1 0x0 PUSH1 0x20 PUSH1 0x1F DUP4 ADD DIV SWAP1 POP SWAP2 SWAP1 POP JUMP JUMPDEST PUSH1 0x0 DUP3 DUP3 SHL SWAP1 POP SWAP3 SWAP2 POP POP JUMP JUMPDEST PUSH1 0x0 PUSH1 0x8 DUP4 MUL PUSH3 0x569 PUSH32 0xFFFFFFFFFFFFFFFFFFFFFFFFFFFFFFFFFFFFFFFFFFFFFFFFFFFFFFFFFFFFFFFF DUP3 PUSH3 0x52A JUMP JUMPDEST PUSH3 0x575 DUP7 DUP4 PUSH3 0x52A JUMP JUMPDEST SWAP6 POP DUP1 NOT DUP5 AND SWAP4 POP DUP1 DUP7 AND DUP5 OR SWAP3 POP POP POP SWAP4 SWAP3 POP POP POP JUMP JUMPDEST PUSH1 0x0 DUP2 SWAP1 POP SWAP2 SWAP1 POP JUMP JUMPDEST PUSH1 0x0 PUSH3 0x5B8 PUSH3 0x5B2 PUSH3 0x5AC DUP5 PUSH3 0x376 JUMP JUMPDEST PUSH3 0x58D JUMP JUMPDEST PUSH3 0x376 JUMP JUMPDEST SWAP1 POP SWAP2 SWAP1 POP JUMP JUMPDEST PUSH1 0x0 DUP2 SWAP1 POP SWAP2 SWAP1 POP JUMP JUMPDEST PUSH3 0x5D4 DUP4 PUSH3 0x597 JUMP JUMPDEST PUSH3 0x5EC PUSH3 0x5E3 DUP3 PUSH3 0x5BF JUMP JUMPDEST DUP5 DUP5 SLOAD PUSH3 0x537 JUMP JUMPDEST DUP3 SSTORE POP POP POP POP JUMP JUMPDEST PUSH1 0x0 SWAP1 JUMP JUMPDEST PUSH3 0x603 PUSH3 0x5F4 JUMP JUMPDEST PUSH3 0x610 DUP2 DUP5 DUP5 PUSH3 0x5C9 JUMP JUMPDEST POP POP POP JUMP JUMPDEST JUMPDEST DUP2 DUP2 LT ISZERO PUSH3 0x638 JUMPI PUSH3 0x62C PUSH1 0x0 DUP3 PUSH3 0x5F9 JUMP JUMPDEST PUSH1 0x1 DUP2 ADD SWAP1 POP PUSH3 0x616 JUMP JUMPDEST POP POP JUMP JUMPDEST PUSH1 0x1F DUP3 GT ISZERO PUSH3 0x687 JUMPI PUSH3 0x651 DUP2 PUSH3 0x505 JUMP JUMPDEST PUSH3 0x65C DUP5 PUSH3 0x51A JUMP JUMPDEST DUP2 ADD PUSH1 0x20 DUP6 LT ISZERO PUSH3 0x66C JUMPI DUP2 SWAP1 POP JUMPDEST PUSH3 0x684 PUSH3 0x67B DUP6 PUSH3 0x51A JUMP JUMPDEST DUP4 ADD DUP3 PUSH3 0x615 JUMP JUMPDEST POP POP JUMPDEST POP POP POP JUMP JUMPDEST PUSH1 0x0 DUP3 DUP3 SHR SWAP1 POP SWAP3 SWAP2 POP POP JUMP JUMPDEST PUSH1 0x0 PUSH3 0x6AC PUSH1 0x0 NOT DUP5 PUSH1 0x8 MUL PUSH3 0x68C JUMP JUMPDEST NOT DUP1 DUP4 AND SWAP2 POP POP SWAP3 SWAP2 POP POP JUMP JUMPDEST PUSH1 0x0 PUSH3 0x6C7 DUP4 DUP4 PUSH3 0x699 JUMP JUMPDEST SWAP2 POP DUP3 PUSH1 0x2 MUL DUP3 OR SWAP1 POP SWAP3 SWAP2 POP POP JUMP JUMPDEST PUSH3 0x6E2 DUP3 PUSH3 0x496 JUMP JUMPDEST PUSH8 0xFFFFFFFFFFFFFFFF DUP2 GT ISZERO PUSH3 0x6FE JUMPI PUSH3 0x6FD PUSH3 0x212 JUMP JUMPDEST JUMPDEST PUSH3 0x70A DUP3 SLOAD PUSH3 0x4D0 JUMP JUMPDEST PUSH3 0x717 DUP3 DUP3 DUP6 PUSH3 0x63C JUMP JUMPDEST PUSH1 0x0 PUSH1 0x20 SWAP1 POP PUSH1 0x1F DUP4 GT PUSH1 0x1 DUP2 EQ PUSH3 0x74F JUMPI PUSH1 0x0 DUP5 ISZERO PUSH3 0x73A JUMPI DUP3 DUP8 ADD MLOAD SWAP1 POP JUMPDEST PUSH3 0x746 DUP6 DUP3 PUSH3 0x6B9 JUMP JUMPDEST DUP7 SSTORE POP PUSH3 0x7B6 JUMP JUMPDEST PUSH1 0x1F NOT DUP5 AND PUSH3 0x75F DUP7 PUSH3 0x505 JUMP JUMPDEST PUSH1 0x0 JUMPDEST DUP3 DUP2 LT ISZERO PUSH3 0x789 JUMPI DUP5 DUP10 ADD MLOAD DUP3 SSTORE PUSH1 0x1 DUP3 ADD SWAP2 POP PUSH1 0x20 DUP6 ADD SWAP5 POP PUSH1 0x20 DUP2 ADD SWAP1 POP PUSH3 0x762 JUMP JUMPDEST DUP7 DUP4 LT ISZERO PUSH3 0x7A9 JUMPI DUP5 DUP10 ADD MLOAD PUSH3 0x7A5 PUSH1 0x1F DUP10 AND DUP3 PUSH3 0x699 JUMP JUMPDEST DUP4 SSTORE POP JUMPDEST PUSH1 0x1 PUSH1 0x2 DUP9 MUL ADD DUP9 SSTORE POP POP POP JUMPDEST POP POP POP POP POP POP JUMP JUMPDEST PUSH1 0x0 DUP3 DUP3 MSTORE PUSH1 0x20 DUP3 ADD SWAP1 POP SWAP3 SWAP2 POP POP JUMP JUMPDEST PUSH32 0x41535345545F5A45524F00000000000000000000000000000000000000000000 PUSH1 0x0 DUP3 ADD MSTORE POP JUMP JUMPDEST PUSH1 0x0 PUSH3 0x807 PUSH1 0xA DUP4 PUSH3 0x7BE JUMP JUMPDEST SWAP2 POP PUSH3 0x814 DUP3 PUSH3 0x7CF JUMP JUMPDEST PUSH1 0x20 DUP3 ADD SWAP1 POP SWAP2 SWAP1 POP JUMP JUMPDEST PUSH1 0x0 PUSH1 0x20 DUP3 ADD SWAP1 POP DUP2 DUP2 SUB PUSH1 0x0 DUP4 ADD MSTORE PUSH3 0x83A DUP2 PUSH3 0x7F8 JUMP JUMPDEST SWAP1 POP SWAP2 SWAP1 POP JUMP JUMPDEST PUSH1 0x80 MLOAD PUSH2 0x1759 PUSH3 0x86B PUSH1 0x0 CODECOPY PUSH1 0x0 DUP2 DUP2 PUSH2 0x556 ADD MSTORE DUP2 DUP2 PUSH2 0x5F6 ADD MSTORE PUSH2 0x786 ADD MSTORE PUSH2 0x1759 PUSH1 0x0 RETURN INVALID PUSH1 0x80 PUSH1 0x40 MSTORE CALLVALUE DUP1 ISZERO PUSH2 0x10 JUMPI PUSH1 0x0 DUP1 REVERT JUMPDEST POP PUSH1 0x4 CALLDATASIZE LT PUSH2 0x100 JUMPI PUSH1 0x0 CALLDATALOAD PUSH1 0xE0 SHR DUP1 PUSH4 0x70A08231 GT PUSH2 0x97 JUMPI DUP1 PUSH4 0xB6B55F25 GT PUSH2 0x66 JUMPI DUP1 PUSH4 0xB6B55F25 EQ PUSH2 0x2B1 JUMPI DUP1 PUSH4 0xD2CBF7AD EQ PUSH2 0x2CD JUMPI DUP1 PUSH4 0xDD62ED3E EQ PUSH2 0x2EB JUMPI DUP1 PUSH4 0xFC97BCCC EQ PUSH2 0x31B JUMPI PUSH2 0x100 JUMP JUMPDEST DUP1 PUSH4 0x70A08231 EQ PUSH2 0x215 JUMPI DUP1 PUSH4 0x8DA5CB5B EQ PUSH2 0x245 JUMPI DUP1 PUSH4 0x95D89B41 EQ PUSH2 0x263 JUMPI DUP1 PUSH4 0xA9059CBB EQ PUSH2 0x281 JUMPI PUSH2 0x100 JUMP JUMPDEST DUP1 PUSH4 0x24F45E67 GT PUSH2 0xD3 JUMPI DUP1 PUSH4 0x24F45E67 EQ PUSH2 0x1A1 JUMPI DUP1 PUSH4 0x2E1A7D4D EQ PUSH2 0x1BD JUMPI DUP1 PUSH4 0x313CE567 EQ PUSH2 0x1D9 JUMPI DUP1 PUSH4 0x38D52E0F EQ PUSH2 0x1F7 JUMPI PUSH2 0x100 JUMP JUMPDEST DUP1 PUSH4 0x6FDDE03 EQ PUSH2 0x105 JUMPI DUP1 PUSH4 0x95EA7B3 EQ PUSH2 0x123 JUMPI DUP1 PUSH4 0x18160DDD EQ PUSH2 0x153 JUMPI DUP1 PUSH4 0x23B872DD EQ PUSH2 0x171 JUMPI JUMPDEST PUSH1 0x0 DUP1 REVERT JUMPDEST PUSH2 0x10D PUSH2 0x339 JUMP JUMPDEST PUSH1 0x40 MLOAD PUSH2 0x11A SWAP2 SWAP1 PUSH2 0x1205 JUMP JUMPDEST PUSH1 0x40 MLOAD DUP1 SWAP2 SUB SWAP1 RETURN JUMPDEST PUSH2 0x13D PUSH1 0x4 DUP1 CALLDATASIZE SUB DUP2 ADD SWAP1 PUSH2 0x138 SWAP2 SWAP1 PUSH2 0x12C0 JUMP JUMPDEST PUSH2 0x3CB JUMP JUMPDEST PUSH1 0x40 MLOAD PUSH2 0x14A SWAP2 SWAP1 PUSH2 0x131B JUMP JUMPDEST PUSH1 0x40 MLOAD DUP1 SWAP2 SUB SWAP1 RETURN JUMPDEST PUSH2 0x15B PUSH2 0x3EE JUMP JUMPDEST PUSH1 0x40 MLOAD PUSH2 0x168 SWAP2 SWAP1 PUSH2 0x1345 JUMP JUMPDEST PUSH1 0x40 MLOAD DUP1 SWAP2 SUB SWAP1 RETURN JUMPDEST PUSH2 0x18B PUSH1 0x4 DUP1 CALLDATASIZE SUB DUP2 ADD SWAP1 PUSH2 0x186 SWAP2 SWAP1 PUSH2 0x1360 JUMP JUMPDEST PUSH2 0x3F8 JUMP JUMPDEST PUSH1 0x40 MLOAD PUSH2 0x198 SWAP2 SWAP1 PUSH2 0x131B JUMP JUMPDEST PUSH1 0x40 MLOAD DUP1 SWAP2 SUB SWAP1 RETURN JUMPDEST PUSH2 0x1BB PUSH1 0x4 DUP1 CALLDATASIZE SUB DUP2 ADD SWAP1 PUSH2 0x1B6 SWAP2 SWAP1 PUSH2 0x13B3 JUMP JUMPDEST PUSH2 0x427 JUMP JUMPDEST STOP JUMPDEST PUSH2 0x1D7 PUSH1 0x4 DUP1 CALLDATASIZE SUB DUP2 ADD SWAP1 PUSH2 0x1D2 SWAP2 SWAP1 PUSH2 0x13B3 JUMP JUMPDEST PUSH2 0x502 JUMP JUMPDEST STOP JUMPDEST PUSH2 0x1E1 PUSH2 0x5EB JUMP JUMPDEST PUSH1 0x40 MLOAD PUSH2 0x1EE SWAP2 SWAP1 PUSH2 0x13FC JUMP JUMPDEST PUSH1 0x40 MLOAD DUP1 SWAP2 SUB SWAP1 RETURN JUMPDEST PUSH2 0x1FF PUSH2 0x5F4 JUMP JUMPDEST PUSH1 0x40 MLOAD PUSH2 0x20C SWAP2 SWAP1 PUSH2 0x1476 JUMP JUMPDEST PUSH1 0x40 MLOAD DUP1 SWAP2 SUB SWAP1 RETURN JUMPDEST PUSH2 0x22F PUSH1 0x4 DUP1 CALLDATASIZE SUB DUP2 ADD SWAP1 PUSH2 0x22A SWAP2 SWAP1 PUSH2 0x1491 JUMP JUMPDEST PUSH2 0x618 JUMP JUMPDEST PUSH1 0x40 MLOAD PUSH2 0x23C SWAP2 SWAP1 PUSH2 0x1345 JUMP JUMPDEST PUSH1 0x40 MLOAD DUP1 SWAP2 SUB SWAP1 RETURN JUMPDEST PUSH2 0x24D PUSH2 0x660 JUMP JUMPDEST PUSH1 0x40 MLOAD PUSH2 0x25A SWAP2 SWAP1 PUSH2 0x14CD JUMP JUMPDEST PUSH1 0x40 MLOAD DUP1 SWAP2 SUB SWAP1 RETURN JUMPDEST PUSH2 0x26B PUSH2 0x686 JUMP JUMPDEST PUSH1 0x40 MLOAD PUSH2 0x278 SWAP2 SWAP1 PUSH2 0x1205 JUMP JUMPDEST PUSH1 0x40 MLOAD DUP1 SWAP2 SUB SWAP1 RETURN JUMPDEST PUSH2 0x29B PUSH1 0x4 DUP1 CALLDATASIZE SUB DUP2 ADD SWAP1 PUSH2 0x296 SWAP2 SWAP1 PUSH2 0x12C0 JUMP JUMPDEST PUSH2 0x718 JUMP JUMPDEST PUSH1 0x40 MLOAD PUSH2 0x2A8 SWAP2 SWAP1 PUSH2 0x131B JUMP JUMPDEST PUSH1 0x40 MLOAD DUP1 SWAP2 SUB SWAP1 RETURN JUMPDEST PUSH2 0x2CB PUSH1 0x4 DUP1 CALLDATASIZE SUB DUP2 ADD SWAP1 PUSH2 0x2C6 SWAP2 SWAP1 PUSH2 0x13B3 JUMP JUMPDEST PUSH2 0x73B JUMP JUMPDEST STOP JUMPDEST PUSH2 0x2D5 PUSH2 0x826 JUMP JUMPDEST PUSH1 0x40 MLOAD PUSH2 0x2E2 SWAP2 SWAP1 PUSH2 0x1345 JUMP JUMPDEST PUSH1 0x40 MLOAD DUP1 SWAP2 SUB SWAP1 RETURN JUMPDEST PUSH2 0x305 PUSH1 0x4 DUP1 CALLDATASIZE SUB DUP2 ADD SWAP1 PUSH2 0x300 SWAP2 SWAP1 PUSH2 0x14E8 JUMP JUMPDEST PUSH2 0x830 JUMP JUMPDEST PUSH1 0x40 MLOAD PUSH2 0x312 SWAP2 SWAP1 PUSH2 0x1345 JUMP JUMPDEST PUSH1 0x40 MLOAD DUP1 SWAP2 SUB SWAP1 RETURN JUMPDEST PUSH2 0x323 PUSH2 0x8B7 JUMP JUMPDEST PUSH1 0x40 MLOAD PUSH2 0x330 SWAP2 SWAP1 PUSH2 0x1205 JUMP JUMPDEST PUSH1 0x40 MLOAD DUP1 SWAP2 SUB SWAP1 RETURN JUMPDEST PUSH1 0x60 PUSH1 0x3 DUP1 SLOAD PUSH2 0x348 SWAP1 PUSH2 0x1557 JUMP JUMPDEST DUP1 PUSH1 0x1F ADD PUSH1 0x20 DUP1 SWAP2 DIV MUL PUSH1 0x20 ADD PUSH1 0x40 MLOAD SWAP1 DUP2 ADD PUSH1 0x40 MSTORE DUP1 SWAP3 SWAP2 SWAP1 DUP2 DUP2 MSTORE PUSH1 0x20 ADD DUP3 DUP1 SLOAD PUSH2 0x374 SWAP1 PUSH2 0x1557 JUMP JUMPDEST DUP1 ISZERO PUSH2 0x3C1 JUMPI DUP1 PUSH1 0x1F LT PUSH2 0x396 JUMPI PUSH2 0x100 DUP1 DUP4 SLOAD DIV MUL DUP4 MSTORE SWAP2 PUSH1 0x20 ADD SWAP2 PUSH2 0x3C1 JUMP JUMPDEST DUP3 ADD SWAP2 SWAP1 PUSH1 0x0 MSTORE PUSH1 0x20 PUSH1 0x0 KECCAK256 SWAP1 JUMPDEST DUP2 SLOAD DUP2 MSTORE SWAP1 PUSH1 0x1 ADD SWAP1 PUSH1 0x20 ADD DUP1 DUP4 GT PUSH2 0x3A4 JUMPI DUP3 SWAP1 SUB PUSH1 0x1F AND DUP3 ADD SWAP2 JUMPDEST POP POP POP POP POP SWAP1 POP SWAP1 JUMP JUMPDEST PUSH1 0x0 DUP1 PUSH2 0x3D6 PUSH2 0x945 JUMP JUMPDEST SWAP1 POP PUSH2 0x3E3 DUP2 DUP6 DUP6 PUSH2 0x94D JUMP JUMPDEST PUSH1 0x1 SWAP2 POP POP SWAP3 SWAP2 POP POP JUMP JUMPDEST PUSH1 0x0 PUSH1 0x2 SLOAD SWAP1 POP SWAP1 JUMP JUMPDEST PUSH1 0x0 DUP1 PUSH2 0x403 PUSH2 0x945 JUMP JUMPDEST SWAP1 POP PUSH2 0x410 DUP6 DUP3 DUP6 PUSH2 0x95F JUMP JUMPDEST PUSH2 0x41B DUP6 DUP6 DUP6 PUSH2 0x9F4 JUMP JUMPDEST PUSH1 0x1 SWAP2 POP POP SWAP4 SWAP3 POP POP POP JUMP JUMPDEST PUSH1 0x5 PUSH1 0x0 SWAP1 SLOAD SWAP1 PUSH2 0x100 EXP SWAP1 DIV PUSH20 0xFFFFFFFFFFFFFFFFFFFFFFFFFFFFFFFFFFFFFFFF AND PUSH20 0xFFFFFFFFFFFFFFFFFFFFFFFFFFFFFFFFFFFFFFFF AND CALLER PUSH20 0xFFFFFFFFFFFFFFFFFFFFFFFFFFFFFFFFFFFFFFFF AND EQ PUSH2 0x4B7 JUMPI PUSH1 0x40 MLOAD PUSH32 0x8C379A000000000000000000000000000000000000000000000000000000000 DUP2 MSTORE PUSH1 0x4 ADD PUSH2 0x4AE SWAP1 PUSH2 0x15D4 JUMP JUMPDEST PUSH1 0x40 MLOAD DUP1 SWAP2 SUB SWAP1 REVERT JUMPDEST PUSH1 0x0 PUSH1 0x6 SLOAD SWAP1 POP DUP2 PUSH1 0x6 DUP2 SWAP1 SSTORE POP PUSH32 0x4964A33C1A30F04AF88D6711C6B44938A06FAB8BE55D0B96C4A37C527D70A57 DUP2 DUP4 PUSH1 0x40 MLOAD PUSH2 0x4F6 SWAP3 SWAP2 SWAP1 PUSH2 0x15F4 JUMP JUMPDEST PUSH1 0x40 MLOAD DUP1 SWAP2 SUB SWAP1 LOG1 POP POP JUMP JUMPDEST PUSH1 0x0 DUP2 GT PUSH2 0x545 JUMPI PUSH1 0x40 MLOAD PUSH32 0x8C379A000000000000000000000000000000000000000000000000000000000 DUP2 MSTORE PUSH1 0x4 ADD PUSH2 0x53C SWAP1 PUSH2 0x1669 JUMP JUMPDEST PUSH1 0x40 MLOAD DUP1 SWAP2 SUB SWAP1 REVERT JUMPDEST PUSH2 0x54F CALLER DUP3 PUSH2 0xAE8 JUMP JUMPDEST PUSH2 0x59A CALLER DUP3 PUSH32 0x0 PUSH20 0xFFFFFFFFFFFFFFFFFFFFFFFFFFFFFFFFFFFFFFFF AND PUSH2 0xB6A SWAP1 SWAP3 SWAP2 SWAP1 PUSH4 0xFFFFFFFF AND JUMP JUMPDEST CALLER PUSH20 0xFFFFFFFFFFFFFFFFFFFFFFFFFFFFFFFFFFFFFFFF AND PUSH32 0x7084F5476618D8E60B11EF0D7D3F06914655ADB8793E28FF7F018D4C76D505D5 DUP3 PUSH1 0x40 MLOAD PUSH2 0x5E0 SWAP2 SWAP1 PUSH2 0x1345 JUMP JUMPDEST PUSH1 0x40 MLOAD DUP1 SWAP2 SUB SWAP1 LOG2 POP JUMP JUMPDEST PUSH1 0x0 PUSH1 0x12 SWAP1 POP SWAP1 JUMP JUMPDEST PUSH32 0x0 DUP2 JUMP JUMPDEST PUSH1 0x0 DUP1 PUSH1 0x0 DUP4 PUSH20 0xFFFFFFFFFFFFFFFFFFFFFFFFFFFFFFFFFFFFFFFF AND PUSH20 0xFFFFFFFFFFFFFFFFFFFFFFFFFFFFFFFFFFFFFFFF AND DUP2 MSTORE PUSH1 0x20 ADD SWAP1 DUP2 MSTORE PUSH1 0x20 ADD PUSH1 0x0 KECCAK256 SLOAD SWAP1 POP SWAP2 SWAP1 POP JUMP JUMPDEST PUSH1 0x5 PUSH1 0x0 SWAP1 SLOAD SWAP1 PUSH2 0x100 EXP SWAP1 DIV PUSH20 0xFFFFFFFFFFFFFFFFFFFFFFFFFFFFFFFFFFFFFFFF AND DUP2 JUMP JUMPDEST PUSH1 0x60 PUSH1 0x4 DUP1 SLOAD PUSH2 0x695 SWAP1 PUSH2 0x1557 JUMP JUMPDEST DUP1 PUSH1 0x1F ADD PUSH1 0x20 DUP1 SWAP2 DIV MUL PUSH1 0x20 ADD PUSH1 0x40 MLOAD SWAP1 DUP2 ADD PUSH1 0x40 MSTORE DUP1 SWAP3 SWAP2 SWAP1 DUP2 DUP2 MSTORE PUSH1 0x20 ADD DUP3 DUP1 SLOAD PUSH2 0x6C1 SWAP1 PUSH2 0x1557 JUMP JUMPDEST DUP1 ISZERO PUSH2 0x70E JUMPI DUP1 PUSH1 0x1F LT PUSH2 0x6E3 JUMPI PUSH2 0x100 DUP1 DUP4 SLOAD DIV MUL DUP4 MSTORE SWAP2 PUSH1 0x20 ADD SWAP2 PUSH2 0x70E JUMP JUMPDEST DUP3 ADD SWAP2 SWAP1 PUSH1 0x0 MSTORE PUSH1 0x20 PUSH1 0x0 KECCAK256 SWAP1 JUMPDEST DUP2 SLOAD DUP2 MSTORE SWAP1 PUSH1 0x1 ADD SWAP1 PUSH1 0x20 ADD DUP1 DUP4 GT PUSH2 0x6F1 JUMPI DUP3 SWAP1 SUB PUSH1 0x1F AND DUP3 ADD SWAP2 JUMPDEST POP POP POP POP POP SWAP1 POP SWAP1 JUMP JUMPDEST PUSH1 0x0 DUP1 PUSH2 0x723 PUSH2 0x945 JUMP JUMPDEST SWAP1 POP PUSH2 0x730 DUP2 DUP6 DUP6 PUSH2 0x9F4 JUMP JUMPDEST PUSH1 0x1 SWAP2 POP POP SWAP3 SWAP2 POP POP JUMP JUMPDEST PUSH1 0x0 DUP2 GT PUSH2 0x77E JUMPI PUSH1 0x40 MLOAD PUSH32 0x8C379A000000000000000000000000000000000000000000000000000000000 DUP2 MSTORE PUSH1 0x4 ADD PUSH2 0x775 SWAP1 PUSH2 0x1669 JUMP JUMPDEST PUSH1 0x40 MLOAD DUP1 SWAP2 SUB SWAP1 REVERT JUMPDEST PUSH2 0x7CB CALLER ADDRESS DUP4 PUSH32 0x0 PUSH20 0xFFFFFFFFFFFFFFFFFFFFFFFFFFFFFFFFFFFFFFFF AND PUSH2 0xBBD SWAP1 SWAP4 SWAP3 SWAP2 SWAP1 PUSH4 0xFFFFFFFF AND JUMP JUMPDEST PUSH2 0x7D5 CALLER DUP3 PUSH2 0xC12 JUMP JUMPDEST CALLER PUSH20 0xFFFFFFFFFFFFFFFFFFFFFFFFFFFFFFFFFFFFFFFF AND PUSH32 0x2DA466A7B24304F47E87FA2E1E5A81B9831CE54FEC19055CE277CA2F39BA42C4 DUP3 PUSH1 0x40 MLOAD PUSH2 0x81B SWAP2 SWAP1 PUSH2 0x1345 JUMP JUMPDEST PUSH1 0x40 MLOAD DUP1 SWAP2 SUB SWAP1 LOG2 POP JUMP JUMPDEST PUSH1 0x0 PUSH1 0x6 SLOAD SWAP1 POP SWAP1 JUMP JUMPDEST PUSH1 0x0 PUSH1 0x1 PUSH1 0x0 DUP5 PUSH20 0xFFFFFFFFFFFFFFFFFFFFFFFFFFFFFFFFFFFFFFFF AND PUSH20 0xFFFFFFFFFFFFFFFFFFFFFFFFFFFFFFFFFFFFFFFF AND DUP2 MSTORE PUSH1 0x20 ADD SWAP1 DUP2 MSTORE PUSH1 0x20 ADD PUSH1 0x0 KECCAK256 PUSH1 0x0 DUP4 PUSH20 0xFFFFFFFFFFFFFFFFFFFFFFFFFFFFFFFFFFFFFFFF AND PUSH20 0xFFFFFFFFFFFFFFFFFFFFFFFFFFFFFFFFFFFFFFFF AND DUP2 MSTORE PUSH1 0x20 ADD SWAP1 DUP2 MSTORE PUSH1 0x20 ADD PUSH1 0x0 KECCAK256 SLOAD SWAP1 POP SWAP3 SWAP2 POP POP JUMP JUMPDEST PUSH1 0x7 DUP1 SLOAD PUSH2 0x8C4 SWAP1 PUSH2 0x1557 JUMP JUMPDEST DUP1 PUSH1 0x1F ADD PUSH1 0x20 DUP1 SWAP2 DIV MUL PUSH1 0x20 ADD PUSH1 0x40 MLOAD SWAP1 DUP2 ADD PUSH1 0x40 MSTORE DUP1 SWAP3 SWAP2 SWAP1 DUP2 DUP2 MSTORE PUSH1 0x20 ADD DUP3 DUP1 SLOAD PUSH2 0x8F0 SWAP1 PUSH2 0x1557 JUMP JUMPDEST DUP1 ISZERO PUSH2 0x93D JUMPI DUP1 PUSH1 0x1F LT PUSH2 0x912 JUMPI PUSH2 0x100 DUP1 DUP4 SLOAD DIV MUL DUP4 MSTORE SWAP2 PUSH1 0x20 ADD SWAP2 PUSH2 0x93D JUMP JUMPDEST DUP3 ADD SWAP2 SWAP1 PUSH1 0x0 MSTORE PUSH1 0x20 PUSH1 0x0 KECCAK256 SWAP1 JUMPDEST DUP2 SLOAD DUP2 MSTORE SWAP1 PUSH1 0x1 ADD SWAP1 PUSH1 0x20 ADD DUP1 DUP4 GT PUSH2 0x920 JUMPI DUP3 SWAP1 SUB PUSH1 0x1F AND DUP3 ADD SWAP2 JUMPDEST POP POP POP POP POP DUP2 JUMP JUMPDEST PUSH1 0x0 CALLER SWAP1 POP SWAP1 JUMP JUMPDEST PUSH2 0x95A DUP4 DUP4 DUP4 PUSH1 0x1 PUSH2 0xC94 JUMP JUMPDEST POP POP POP JUMP JUMPDEST PUSH1 0x0 PUSH2 0x96B DUP5 DUP5 PUSH2 0x830 JUMP JUMPDEST SWAP1 POP PUSH32 0xFFFFFFFFFFFFFFFFFFFFFFFFFFFFFFFFFFFFFFFFFFFFFFFFFFFFFFFFFFFFFFFF DUP2 LT ISZERO PUSH2 0x9EE JUMPI DUP2 DUP2 LT ISZERO PUSH2 0x9DE JUMPI DUP3 DUP2 DUP4 PUSH1 0x40 MLOAD PUSH32 0xFB8F41B200000000000000000000000000000000000000000000000000000000 DUP2 MSTORE PUSH1 0x4 ADD PUSH2 0x9D5 SWAP4 SWAP3 SWAP2 SWAP1 PUSH2 0x1689 JUMP JUMPDEST PUSH1 0x40 MLOAD DUP1 SWAP2 SUB SWAP1 REVERT JUMPDEST PUSH2 0x9ED DUP5 DUP5 DUP5 DUP5 SUB PUSH1 0x0 PUSH2 0xC94 JUMP JUMPDEST JUMPDEST POP POP POP POP JUMP JUMPDEST PUSH1 0x0 PUSH20 0xFFFFFFFFFFFFFFFFFFFFFFFFFFFFFFFFFFFFFFFF AND DUP4 PUSH20 0xFFFFFFFFFFFFFFFFFFFFFFFFFFFFFFFFFFFFFFFF AND SUB PUSH2 0xA66 JUMPI PUSH1 0x0 PUSH1 0x40 MLOAD PUSH32 0x96C6FD1E00000000000000000000000000000000000000000000000000000000 DUP2 MSTORE PUSH1 0x4 ADD PUSH2 0xA5D SWAP2 SWAP1 PUSH2 0x14CD JUMP JUMPDEST PUSH1 0x40 MLOAD DUP1 SWAP2 SUB SWAP1 REVERT JUMPDEST PUSH1 0x0 PUSH20 0xFFFFFFFFFFFFFFFFFFFFFFFFFFFFFFFFFFFFFFFF AND DUP3 PUSH20 0xFFFFFFFFFFFFFFFFFFFFFFFFFFFFFFFFFFFFFFFF AND SUB PUSH2 0xAD8 JUMPI PUSH1 0x0 PUSH1 0x40 MLOAD PUSH32 0xEC442F0500000000000000000000000000000000000000000000000000000000 DUP2 MSTORE PUSH1 0x4 ADD PUSH2 0xACF SWAP2 SWAP1 PUSH2 0x14CD JUMP JUMPDEST PUSH1 0x40 MLOAD DUP1 SWAP2 SUB SWAP1 REVERT JUMPDEST PUSH2 0xAE3 DUP4 DUP4 DUP4 PUSH2 0xE6B JUMP JUMPDEST POP POP POP JUMP JUMPDEST PUSH1 0x0 PUSH20 0xFFFFFFFFFFFFFFFFFFFFFFFFFFFFFFFFFFFFFFFF AND DUP3 PUSH20 0xFFFFFFFFFFFFFFFFFFFFFFFFFFFFFFFFFFFFFFFF AND SUB PUSH2 0xB5A JUMPI PUSH1 0x0 PUSH1 0x40 MLOAD PUSH32 0x96C6FD1E00000000000000000000000000000000000000000000000000000000 DUP2 MSTORE PUSH1 0x4 ADD PUSH2 0xB51 SWAP2 SWAP1 PUSH2 0x14CD JUMP JUMPDEST PUSH1 0x40 MLOAD DUP1 SWAP2 SUB SWAP1 REVERT JUMPDEST PUSH2 0xB66 DUP3 PUSH1 0x0 DUP4 PUSH2 0xE6B JUMP JUMPDEST POP POP JUMP JUMPDEST PUSH2 0xB77 DUP4 DUP4 DUP4 PUSH1 0x1 PUSH2 0x1090 JUMP JUMPDEST PUSH2 0xBB8 JUMPI DUP3 PUSH1 0x40 MLOAD PUSH32 0x5274AFE700000000000000000000000000000000000000000000000000000000 DUP2 MSTORE PUSH1 0x4 ADD PUSH2 0xBAF SWAP2 SWAP1 PUSH2 0x14CD JUMP JUMPDEST PUSH1 0x40 MLOAD DUP1 SWAP2 SUB SWAP1 REVERT JUMPDEST POP POP POP JUMP JUMPDEST PUSH2 0xBCB DUP5 DUP5 DUP5 DUP5 PUSH1 0x1 PUSH2 0x10FA JUMP JUMPDEST PUSH2 0xC0C JUMPI DUP4 PUSH1 0x40 MLOAD PUSH32 0x5274AFE700000000000000000000000000000000000000000000000000000000 DUP2 MSTORE PUSH1 0x4 ADD PUSH2 0xC03 SWAP2 SWAP1 PUSH2 0x14CD JUMP JUMPDEST PUSH1 0x40 MLOAD DUP1 SWAP2 SUB SWAP1 REVERT JUMPDEST POP POP POP POP JUMP JUMPDEST PUSH1 0x0 PUSH20 0xFFFFFFFFFFFFFFFFFFFFFFFFFFFFFFFFFFFFFFFF AND DUP3 PUSH20 0xFFFFFFFFFFFFFFFFFFFFFFFFFFFFFFFFFFFFFFFF AND SUB PUSH2 0xC84 JUMPI PUSH1 0x0 PUSH1 0x40 MLOAD PUSH32 0xEC442F0500000000000000000000000000000000000000000000000000000000 DUP2 MSTORE PUSH1 0x4 ADD PUSH2 0xC7B SWAP2 SWAP1 PUSH2 0x14CD JUMP JUMPDEST PUSH1 0x40 MLOAD DUP1 SWAP2 SUB SWAP1 REVERT JUMPDEST PUSH2 0xC90 PUSH1 0x0 DUP4 DUP4 PUSH2 0xE6B JUMP JUMPDEST POP POP JUMP JUMPDEST PUSH1 0x0 PUSH20 0xFFFFFFFFFFFFFFFFFFFFFFFFFFFFFFFFFFFFFFFF AND DUP5 PUSH20 0xFFFFFFFFFFFFFFFFFFFFFFFFFFFFFFFFFFFFFFFF AND SUB PUSH2 0xD06 JUMPI PUSH1 0x0 PUSH1 0x40 MLOAD PUSH32 0xE602DF0500000000000000000000000000000000000000000000000000000000 DUP2 MSTORE PUSH1 0x4 ADD PUSH2 0xCFD SWAP2 SWAP1 PUSH2 0x14CD JUMP JUMPDEST PUSH1 0x40 MLOAD DUP1 SWAP2 SUB SWAP1 REVERT JUMPDEST PUSH1 0x0 PUSH20 0xFFFFFFFFFFFFFFFFFFFFFFFFFFFFFFFFFFFFFFFF AND DUP4 PUSH20 0xFFFFFFFFFFFFFFFFFFFFFFFFFFFFFFFFFFFFFFFF AND SUB PUSH2 0xD78 JUMPI PUSH1 0x0 PUSH1 0x40 MLOAD PUSH32 0x94280D6200000000000000000000000000000000000000000000000000000000 DUP2 MSTORE PUSH1 0x4 ADD PUSH2 0xD6F SWAP2 SWAP1 PUSH2 0x14CD JUMP JUMPDEST PUSH1 0x40 MLOAD DUP1 SWAP2 SUB SWAP1 REVERT JUMPDEST DUP2 PUSH1 0x1 PUSH1 0x0 DUP7 PUSH20 0xFFFFFFFFFFFFFFFFFFFFFFFFFFFFFFFFFFFFFFFF AND PUSH20 0xFFFFFFFFFFFFFFFFFFFFFFFFFFFFFFFFFFFFFFFF AND DUP2 MSTORE PUSH1 0x20 ADD SWAP1 DUP2 MSTORE PUSH1 0x20 ADD PUSH1 0x0 KECCAK256 PUSH1 0x0 DUP6 PUSH20 0xFFFFFFFFFFFFFFFFFFFFFFFFFFFFFFFFFFFFFFFF AND PUSH20 0xFFFFFFFFFFFFFFFFFFFFFFFFFFFFFFFFFFFFFFFF AND DUP2 MSTORE PUSH1 0x20 ADD SWAP1 DUP2 MSTORE PUSH1 0x20 ADD PUSH1 0x0 KECCAK256 DUP2 SWAP1 SSTORE POP DUP1 ISZERO PUSH2 0xE65 JUMPI DUP3 PUSH20 0xFFFFFFFFFFFFFFFFFFFFFFFFFFFFFFFFFFFFFFFF AND DUP5 PUSH20 0xFFFFFFFFFFFFFFFFFFFFFFFFFFFFFFFFFFFFFFFF AND PUSH32 0x8C5BE1E5EBEC7D5BD14F71427D1E84F3DD0314C0F7B2291E5B200AC8C7C3B925 DUP5 PUSH1 0x40 MLOAD PUSH2 0xE5C SWAP2 SWAP1 PUSH2 0x1345 JUMP JUMPDEST PUSH1 0x40 MLOAD DUP1 SWAP2 SUB SWAP1 LOG3 JUMPDEST POP POP POP POP JUMP JUMPDEST PUSH1 0x0 PUSH20 0xFFFFFFFFFFFFFFFFFFFFFFFFFFFFFFFFFFFFFFFF AND DUP4 PUSH20 0xFFFFFFFFFFFFFFFFFFFFFFFFFFFFFFFFFFFFFFFF AND SUB PUSH2 0xEBD JUMPI DUP1 PUSH1 0x2 PUSH1 0x0 DUP3 DUP3 SLOAD PUSH2 0xEB1 SWAP2 SWAP1 PUSH2 0x16EF JUMP JUMPDEST SWAP3 POP POP DUP2 SWAP1 SSTORE POP PUSH2 0xF90 JUMP JUMPDEST PUSH1 0x0 DUP1 PUSH1 0x0 DUP6 PUSH20 0xFFFFFFFFFFFFFFFFFFFFFFFFFFFFFFFFFFFFFFFF AND PUSH20 0xFFFFFFFFFFFFFFFFFFFFFFFFFFFFFFFFFFFFFFFF AND DUP2 MSTORE PUSH1 0x20 ADD SWAP1 DUP2 MSTORE PUSH1 0x20 ADD PUSH1 0x0 KECCAK256 SLOAD SWAP1 POP DUP2 DUP2 LT ISZERO PUSH2 0xF49 JUMPI DUP4 DUP2 DUP4 PUSH1 0x40 MLOAD PUSH32 0xE450D38C00000000000000000000000000000000000000000000000000000000 DUP2 MSTORE PUSH1 0x4 ADD PUSH2 0xF40 SWAP4 SWAP3 SWAP2 SWAP1 PUSH2 0x1689 JUMP JUMPDEST PUSH1 0x40 MLOAD DUP1 SWAP2 SUB SWAP1 REVERT JUMPDEST DUP2 DUP2 SUB PUSH1 0x0 DUP1 DUP7 PUSH20 0xFFFFFFFFFFFFFFFFFFFFFFFFFFFFFFFFFFFFFFFF AND PUSH20 0xFFFFFFFFFFFFFFFFFFFFFFFFFFFFFFFFFFFFFFFF AND DUP2 MSTORE PUSH1 0x20 ADD SWAP1 DUP2 MSTORE PUSH1 0x20 ADD PUSH1 0x0 KECCAK256 DUP2 SWAP1 SSTORE POP POP JUMPDEST PUSH1 0x0 PUSH20 0xFFFFFFFFFFFFFFFFFFFFFFFFFFFFFFFFFFFFFFFF AND DUP3 PUSH20 0xFFFFFFFFFFFFFFFFFFFFFFFFFFFFFFFFFFFFFFFF AND SUB PUSH2 0xFD9 JUMPI DUP1 PUSH1 0x2 PUSH1 0x0 DUP3 DUP3 SLOAD SUB SWAP3 POP POP DUP2 SWAP1 SSTORE POP PUSH2 0x1026 JUMP JUMPDEST DUP1 PUSH1 0x0 DUP1 DUP5 PUSH20 0xFFFFFFFFFFFFFFFFFFFFFFFFFFFFFFFFFFFFFFFF AND PUSH20 0xFFFFFFFFFFFFFFFFFFFFFFFFFFFFFFFFFFFFFFFF AND DUP2 MSTORE PUSH1 0x20 ADD SWAP1 DUP2 MSTORE PUSH1 0x20 ADD PUSH1 0x0 KECCAK256 PUSH1 0x0 DUP3 DUP3 SLOAD ADD SWAP3 POP POP DUP2 SWAP1 SSTORE POP JUMPDEST DUP2 PUSH20 0xFFFFFFFFFFFFFFFFFFFFFFFFFFFFFFFFFFFFFFFF AND DUP4 PUSH20 0xFFFFFFFFFFFFFFFFFFFFFFFFFFFFFFFFFFFFFFFF AND PUSH32 0xDDF252AD1BE2C89B69C2B068FC378DAA952BA7F163C4A11628F55A4DF523B3EF DUP4 PUSH1 0x40 MLOAD PUSH2 0x1083 SWAP2 SWAP1 PUSH2 0x1345 JUMP JUMPDEST PUSH1 0x40 MLOAD DUP1 SWAP2 SUB SWAP1 LOG3 POP POP POP JUMP JUMPDEST PUSH1 0x0 DUP1 PUSH4 0xA9059CBB PUSH1 0xE0 SHL SWAP1 POP PUSH1 0x40 MLOAD DUP2 PUSH1 0x0 MSTORE PUSH1 0x0 NOT PUSH1 0x60 SHR DUP7 AND PUSH1 0x4 MSTORE DUP5 PUSH1 0x24 MSTORE PUSH1 0x20 PUSH1 0x0 PUSH1 0x44 PUSH1 0x0 DUP1 DUP12 GAS CALL SWAP3 POP PUSH1 0x1 PUSH1 0x0 MLOAD EQ DUP4 AND PUSH2 0x10EC JUMPI DUP4 DUP4 ISZERO AND ISZERO PUSH2 0x10DF JUMPI RETURNDATASIZE PUSH1 0x0 DUP3 RETURNDATACOPY RETURNDATASIZE DUP2 REVERT JUMPDEST PUSH1 0x0 DUP8 EXTCODESIZE GT RETURNDATASIZE ISZERO AND DUP4 AND SWAP3 POP JUMPDEST DUP1 PUSH1 0x40 MSTORE POP POP SWAP5 SWAP4 POP POP POP POP JUMP JUMPDEST PUSH1 0x0 DUP1 PUSH4 0x23B872DD PUSH1 0xE0 SHL SWAP1 POP PUSH1 0x40 MLOAD DUP2 PUSH1 0x0 MSTORE PUSH1 0x0 NOT PUSH1 0x60 SHR DUP8 AND PUSH1 0x4 MSTORE PUSH1 0x0 NOT PUSH1 0x60 SHR DUP7 AND PUSH1 0x24 MSTORE DUP5 PUSH1 0x44 MSTORE PUSH1 0x20 PUSH1 0x0 PUSH1 0x64 PUSH1 0x0 DUP1 DUP13 GAS CALL SWAP3 POP PUSH1 0x1 PUSH1 0x0 MLOAD EQ DUP4 AND PUSH2 0x1161 JUMPI DUP4 DUP4 ISZERO AND ISZERO PUSH2 0x1154 JUMPI RETURNDATASIZE PUSH1 0x0 DUP3 RETURNDATACOPY RETURNDATASIZE DUP2 REVERT JUMPDEST PUSH1 0x0 DUP9 EXTCODESIZE GT RETURNDATASIZE ISZERO AND DUP4 AND SWAP3 POP JUMPDEST DUP1 PUSH1 0x40 MSTORE PUSH1 0x0 PUSH1 0x60 MSTORE POP POP SWAP6 SWAP5 POP POP POP POP POP JUMP JUMPDEST PUSH1 0x0 DUP2 MLOAD SWAP1 POP SWAP2 SWAP1 POP JUMP JUMPDEST PUSH1 0x0 DUP3 DUP3 MSTORE PUSH1 0x20 DUP3 ADD SWAP1 POP SWAP3 SWAP2 POP POP JUMP JUMPDEST PUSH1 0x0 JUMPDEST DUP4 DUP2 LT ISZERO PUSH2 0x11AF JUMPI DUP1 DUP3 ADD MLOAD DUP2 DUP5 ADD MSTORE PUSH1 0x20 DUP2 ADD SWAP1 POP PUSH2 0x1194 JUMP JUMPDEST PUSH1 0x0 DUP5 DUP5 ADD MSTORE POP POP POP POP JUMP JUMPDEST PUSH1 0x0 PUSH1 0x1F NOT PUSH1 0x1F DUP4 ADD AND SWAP1 POP SWAP2 SWAP1 POP JUMP JUMPDEST PUSH1 0x0 PUSH2 0x11D7 DUP3 PUSH2 0x1175 JUMP JUMPDEST PUSH2 0x11E1 DUP2 DUP6 PUSH2 0x1180 JUMP JUMPDEST SWAP4 POP PUSH2 0x11F1 DUP2 DUP6 PUSH1 0x20 DUP7 ADD PUSH2 0x1191 JUMP JUMPDEST PUSH2 0x11FA DUP2 PUSH2 0x11BB JUMP JUMPDEST DUP5 ADD SWAP2 POP POP SWAP3 SWAP2 POP POP JUMP JUMPDEST PUSH1 0x0 PUSH1 0x20 DUP3 ADD SWAP1 POP DUP2 DUP2 SUB PUSH1 0x0 DUP4 ADD MSTORE PUSH2 0x121F DUP2 DUP5 PUSH2 0x11CC JUMP JUMPDEST SWAP1 POP SWAP3 SWAP2 POP POP JUMP JUMPDEST PUSH1 0x0 DUP1 REVERT JUMPDEST PUSH1 0x0 PUSH20 0xFFFFFFFFFFFFFFFFFFFFFFFFFFFFFFFFFFFFFFFF DUP3 AND SWAP1 POP SWAP2 SWAP1 POP JUMP JUMPDEST PUSH1 0x0 PUSH2 0x1257 DUP3 PUSH2 0x122C JUMP JUMPDEST SWAP1 POP SWAP2 SWAP1 POP JUMP JUMPDEST PUSH2 0x1267 DUP2 PUSH2 0x124C JUMP JUMPDEST DUP2 EQ PUSH2 0x1272 JUMPI PUSH1 0x0 DUP1 REVERT JUMPDEST POP JUMP JUMPDEST PUSH1 0x0 DUP2 CALLDATALOAD SWAP1 POP PUSH2 0x1284 DUP2 PUSH2 0x125E JUMP JUMPDEST SWAP3 SWAP2 POP POP JUMP JUMPDEST PUSH1 0x0 DUP2 SWAP1 POP SWAP2 SWAP1 POP JUMP JUMPDEST PUSH2 0x129D DUP2 PUSH2 0x128A JUMP JUMPDEST DUP2 EQ PUSH2 0x12A8 JUMPI PUSH1 0x0 DUP1 REVERT JUMPDEST POP JUMP JUMPDEST PUSH1 0x0 DUP2 CALLDATALOAD SWAP1 POP PUSH2 0x12BA DUP2 PUSH2 0x1294 JUMP JUMPDEST SWAP3 SWAP2 POP POP JUMP JUMPDEST PUSH1 0x0 DUP1 PUSH1 0x40 DUP4 DUP6 SUB SLT ISZERO PUSH2 0x12D7 JUMPI PUSH2 0x12D6 PUSH2 0x1227 JUMP JUMPDEST JUMPDEST PUSH1 0x0 PUSH2 0x12E5 DUP6 DUP3 DUP7 ADD PUSH2 0x1275 JUMP JUMPDEST SWAP3 POP POP PUSH1 0x20 PUSH2 0x12F6 DUP6 DUP3 DUP7 ADD PUSH2 0x12AB JUMP JUMPDEST SWAP2 POP POP SWAP3 POP SWAP3 SWAP1 POP JUMP JUMPDEST PUSH1 0x0 DUP2 ISZERO ISZERO SWAP1 POP SWAP2 SWAP1 POP JUMP JUMPDEST PUSH2 0x1315 DUP2 PUSH2 0x1300 JUMP JUMPDEST DUP3 MSTORE POP POP JUMP JUMPDEST PUSH1 0x0 PUSH1 0x20 DUP3 ADD SWAP1 POP PUSH2 0x1330 PUSH1 0x0 DUP4 ADD DUP5 PUSH2 0x130C JUMP JUMPDEST SWAP3 SWAP2 POP POP JUMP JUMPDEST PUSH2 0x133F DUP2 PUSH2 0x128A JUMP JUMPDEST DUP3 MSTORE POP POP JUMP JUMPDEST PUSH1 0x0 PUSH1 0x20 DUP3 ADD SWAP1 POP PUSH2 0x135A PUSH1 0x0 DUP4 ADD DUP5 PUSH2 0x1336 JUMP JUMPDEST SWAP3 SWAP2 POP POP JUMP JUMPDEST PUSH1 0x0 DUP1 PUSH1 0x0 PUSH1 0x60 DUP5 DUP7 SUB SLT ISZERO PUSH2 0x1379 JUMPI PUSH2 0x1378 PUSH2 0x1227 JUMP JUMPDEST JUMPDEST PUSH1 0x0 PUSH2 0x1387 DUP7 DUP3 DUP8 ADD PUSH2 0x1275 JUMP JUMPDEST SWAP4 POP POP PUSH1 0x20 PUSH2 0x1398 DUP7 DUP3 DUP8 ADD PUSH2 0x1275 JUMP JUMPDEST SWAP3 POP POP PUSH1 0x40 PUSH2 0x13A9 DUP7 DUP3 DUP8 ADD PUSH2 0x12AB JUMP JUMPDEST SWAP2 POP POP SWAP3 POP SWAP3 POP SWAP3 JUMP JUMPDEST PUSH1 0x0 PUSH1 0x20 DUP3 DUP5 SUB SLT ISZERO PUSH2 0x13C9 JUMPI PUSH2 0x13C8 PUSH2 0x1227 JUMP JUMPDEST JUMPDEST PUSH1 0x0 PUSH2 0x13D7 DUP5 DUP3 DUP6 ADD PUSH2 0x12AB JUMP JUMPDEST SWAP2 POP POP SWAP3 SWAP2 POP POP JUMP JUMPDEST PUSH1 0x0 PUSH1 0xFF DUP3 AND SWAP1 POP SWAP2 SWAP1 POP JUMP JUMPDEST PUSH2 0x13F6 DUP2 PUSH2 0x13E0 JUMP JUMPDEST DUP3 MSTORE POP POP JUMP JUMPDEST PUSH1 0x0 PUSH1 0x20 DUP3 ADD SWAP1 POP PUSH2 0x1411 PUSH1 0x0 DUP4 ADD DUP5 PUSH2 0x13ED JUMP JUMPDEST SWAP3 SWAP2 POP POP JUMP JUMPDEST PUSH1 0x0 DUP2 SWAP1 POP SWAP2 SWAP1 POP JUMP JUMPDEST PUSH1 0x0 PUSH2 0x143C PUSH2 0x1437 PUSH2 0x1432 DUP5 PUSH2 0x122C JUMP JUMPDEST PUSH2 0x1417 JUMP JUMPDEST PUSH2 0x122C JUMP JUMPDEST SWAP1 POP SWAP2 SWAP1 POP JUMP JUMPDEST PUSH1 0x0 PUSH2 0x144E DUP3 PUSH2 0x1421 JUMP JUMPDEST SWAP1 POP SWAP2 SWAP1 POP JUMP JUMPDEST PUSH1 0x0 PUSH2 0x1460 DUP3 PUSH2 0x1443 JUMP JUMPDEST SWAP1 POP SWAP2 SWAP1 POP JUMP JUMPDEST PUSH2 0x1470 DUP2 PUSH2 0x1455 JUMP JUMPDEST DUP3 MSTORE POP POP JUMP JUMPDEST PUSH1 0x0 PUSH1 0x20 DUP3 ADD SWAP1 POP PUSH2 0x148B PUSH1 0x0 DUP4 ADD DUP5 PUSH2 0x1467 JUMP JUMPDEST SWAP3 SWAP2 POP POP JUMP JUMPDEST PUSH1 0x0 PUSH1 0x20 DUP3 DUP5 SUB SLT ISZERO PUSH2 0x14A7 JUMPI PUSH2 0x14A6 PUSH2 0x1227 JUMP JUMPDEST JUMPDEST PUSH1 0x0 PUSH2 0x14B5 DUP5 DUP3 DUP6 ADD PUSH2 0x1275 JUMP JUMPDEST SWAP2 POP POP SWAP3 SWAP2 POP POP JUMP JUMPDEST PUSH2 0x14C7 DUP2 PUSH2 0x124C JUMP JUMPDEST DUP3 MSTORE POP POP JUMP JUMPDEST PUSH1 0x0 PUSH1 0x20 DUP3 ADD SWAP1 POP PUSH2 0x14E2 PUSH1 0x0 DUP4 ADD DUP5 PUSH2 0x14BE JUMP JUMPDEST SWAP3 SWAP2 POP POP JUMP JUMPDEST PUSH1 0x0 DUP1 PUSH1 0x40 DUP4 DUP6 SUB SLT ISZERO PUSH2 0x14FF JUMPI PUSH2 0x14FE PUSH2 0x1227 JUMP JUMPDEST JUMPDEST PUSH1 0x0 PUSH2 0x150D DUP6 DUP3 DUP7 ADD PUSH2 0x1275 JUMP JUMPDEST SWAP3 POP POP PUSH1 0x20 PUSH2 0x151E DUP6 DUP3 DUP7 ADD PUSH2 0x1275 JUMP JUMPDEST SWAP2 POP POP SWAP3 POP SWAP3 SWAP1 POP JUMP JUMPDEST PUSH32 0x4E487B7100000000000000000000000000000000000000000000000000000000 PUSH1 0x0 MSTORE PUSH1 0x22 PUSH1 0x4 MSTORE PUSH1 0x24 PUSH1 0x0 REVERT JUMPDEST PUSH1 0x0 PUSH1 0x2 DUP3 DIV SWAP1 POP PUSH1 0x1 DUP3 AND DUP1 PUSH2 0x156F JUMPI PUSH1 0x7F DUP3 AND SWAP2 POP JUMPDEST PUSH1 0x20 DUP3 LT DUP2 SUB PUSH2 0x1582 JUMPI PUSH2 0x1581 PUSH2 0x1528 JUMP JUMPDEST JUMPDEST POP SWAP2 SWAP1 POP JUMP JUMPDEST PUSH32 0x4F4E4C595F4F574E455200000000000000000000000000000000000000000000 PUSH1 0x0 DUP3 ADD MSTORE POP JUMP JUMPDEST PUSH1 0x0 PUSH2 0x15BE PUSH1 0xA DUP4 PUSH2 0x1180 JUMP JUMPDEST SWAP2 POP PUSH2 0x15C9 DUP3 PUSH2 0x1588 JUMP JUMPDEST PUSH1 0x20 DUP3 ADD SWAP1 POP SWAP2 SWAP1 POP JUMP JUMPDEST PUSH1 0x0 PUSH1 0x20 DUP3 ADD SWAP1 POP DUP2 DUP2 SUB PUSH1 0x0 DUP4 ADD MSTORE PUSH2 0x15ED DUP2 PUSH2 0x15B1 JUMP JUMPDEST SWAP1 POP SWAP2 SWAP1 POP JUMP JUMPDEST PUSH1 0x0 PUSH1 0x40 DUP3 ADD SWAP1 POP PUSH2 0x1609 PUSH1 0x0 DUP4 ADD DUP6 PUSH2 0x1336 JUMP JUMPDEST PUSH2 0x1616 PUSH1 0x20 DUP4 ADD DUP5 PUSH2 0x1336 JUMP JUMPDEST SWAP4 SWAP3 POP POP POP JUMP JUMPDEST PUSH32 0x5A45524F5F414D4F554E54000000000000000000000000000000000000000000 PUSH1 0x0 DUP3 ADD MSTORE POP JUMP JUMPDEST PUSH1 0x0 PUSH2 0x1653 PUSH1 0xB DUP4 PUSH2 0x1180 JUMP JUMPDEST SWAP2 POP PUSH2 0x165E DUP3 PUSH2 0x161D JUMP JUMPDEST PUSH1 0x20 DUP3 ADD SWAP1 POP SWAP2 SWAP1 POP JUMP JUMPDEST PUSH1 0x0 PUSH1 0x20 DUP3 ADD SWAP1 POP DUP2 DUP2 SUB PUSH1 0x0 DUP4 ADD MSTORE PUSH2 0x1682 DUP2 PUSH2 0x1646 JUMP JUMPDEST SWAP1 POP SWAP2 SWAP1 POP JUMP JUMPDEST PUSH1 0x0 PUSH1 0x60 DUP3 ADD SWAP1 POP PUSH2 0x169E PUSH1 0x0 DUP4 ADD DUP7 PUSH2 0x14BE JUMP JUMPDEST PUSH2 0x16AB PUSH1 0x20 DUP4 ADD DUP6 PUSH2 0x1336 JUMP JUMPDEST PUSH2 0x16B8 PUSH1 0x40 DUP4 ADD DUP5 PUSH2 0x1336 JUMP JUMPDEST SWAP5 SWAP4 POP POP POP POP JUMP JUMPDEST PUSH32 0x4E487B7100000000000000000000000000000000000000000000000000000000 PUSH1 0x0 MSTORE PUSH1 0x11 PUSH1 0x4 MSTORE PUSH1 0x24 PUSH1 0x0 REVERT JUMPDEST PUSH1 0x0 PUSH2 0x16FA DUP3 PUSH2 0x128A JUMP JUMPDEST SWAP2 POP PUSH2 0x1705 DUP4 PUSH2 0x128A JUMP JUMPDEST SWAP3 POP DUP3 DUP3 ADD SWAP1 POP DUP1 DUP3 GT ISZERO PUSH2 0x171D JUMPI PUSH2 0x171C PUSH2 0x16C0 JUMP JUMPDEST JUMPDEST SWAP3 SWAP2 POP POP JUMP INVALID LOG2 PUSH5 0x6970667358 0x22 SLT KECCAK256 0x4D PUSH21 0x6F80831BEAD90681879257D51DE54D4D55748F0E92 ADD 0xD7 SWAP3 0xF 0xDB SWAP8 0xC4 DUP5 0xBF PUSH5 0x736F6C6343 STOP ADDMOD XOR STOP CALLER "
        },
        "methodIdentifiers": {
          "allowance(address,address)": "dd62ed3e",
          "approve(address,uint256)": "095ea7b3",
          "asset()": "38d52e0f",
          "balanceOf(address)": "70a08231",
          "decimals()": "313ce567",
          "deposit(uint256)": "b6b55f25",
          "getAPY()": "d2cbf7ad",
          "name()": "06fdde03",
          "owner()": "8da5cb5b",
          "setAPY(uint256)": "24f45e67",
          "strategyLabel()": "fc97bccc",
          "symbol()": "95d89b41",
          "totalSupply()": "18160ddd",
          "transfer(address,uint256)": "a9059cbb",
          "transferFrom(address,address,uint256)": "23b872dd",
          "withdraw(uint256)": "2e1a7d4d"
        }
      }
    }
  }
}